:020000040000FA
:0600000000000EEF00F00D
:0400080004EF00F011
:080018000CEF00F002D839D80A
:1000200040D9400EC16E790EC26EE10E926EDC0EAA
:10003000936E000E946E0F0E956E040E966E100E5B
:10004000806E200EC66EC00EC76E080EB16E810E99
:10005000CD6E0B0EBD6E610EBF6EA80EBE6E83CF51
:1000600003F0166A080E046E056A186AC00E086E60
:10007000DF0E0B6E430E0C6E000E0D6E000E116E39
:100080000ED8020EF76EFA0EF66E27D8010E176E16
:100090001200210E146EFCD8FF0E146EF9D80A0E51
:1000A000006E23D90006FDE18490020EF76EF20E79
:1000B000F66E08008482F5CF83FF849216D984827D
:1000C000F538836E849211D90B00F552F3E11200DA
:1000D000210E006E0006FEE1120084900800F55229
:1000E00001E10B008482F5CF83FF84928482F5388E
:1000F000836E8492EDDF84800B00F552F3E11200F1
:1001000084908482EFCF83FF84928482EF38836E61
:100110008492DEDF8480EC50F4E112001650D8A403
:1001200016068096026A8350316E0318030B17E09F
:10013000033002E3E89201D0E8823118030B02E1B8
:10014000020601D0022A1650D8B407D08086D89073
:100150000236D8900236D8900236060E166E31C09E
:1001600003F012000490049283A602D0048801D008
:10017000049804A604D004B802D01E0E056E04B87C
:1001800007D0055204E104B402D00480048401D0F5
:10019000049404B607D004A805D0055201E00482F7
:1001A0000494056A055201E0050604A802D00486FD
:1001B00001D004961200C284C2B4FED7C4CF06F0A8
:1001C000C450FF08076EC60E0E6E80A203D007C093
:1001D00012F002D006C012F001D8120008D8106E3A
:1001E000123A05D80F6E00EE0EF08ADF12001250A0
:1001F0000F0B090804E712500F0B370F03D01250F2
:100200000F0B3009120004A226D0172E02D0040EC4
:10021000176E010E175C0AE0020E175C0CE0030E6D
:10022000175C0EE0040E175C10E015D0020EF76E9E
:10023000FA0EF66E0FD0030EF76E120EF66E0AD09F
:10024000030EF76E0A0EF66E05D0030EF76E020E61
:10025000F66E00D042DF04A001D08072120002507E
:100260001826860E0E6E18C012F0B8DF12008290AB
:10027000210E126E0DD806C012F00AD8828082902C
:10028000220E126E05D807C012F002D8828012002A
:100290009E9614C0C9FF0F019EA6FED70F01C9503C
:1002A0001200C280C284C2B4FED7C3CF15F0C29080
:1002B000120000EE0AF0E86A12C01BF00A0E246E6B
:1002C00016EC04F01F503009ED6E1BC012F0E9501F
:1002D0000808F1E100EE08F013DF12008088010643
:1002E00003E1FA0E016E809812009EA4FED79E9440
:1002F0001200333228010C060000804554545F314F
:1003000020008042793A20202000807465616E735D
:100310006100804A616E30352000000001000180DC
:10032000565501403433AB2A93240120721C9A198C
:1003300046175615B2134A1212110110100F390E3A
:100340007A0DCD0C310CA30B220BAB0A3E0AD90956
:100350007C092509D408890843080108C2078807D1
:1003600051071D07EC06BD06910667063F061906F4
:10037000F505D205B1059105730556053A051F052A
:100380000605ED04D504BE04A80493047E046A04A3
:10039000570445043304220411040104F103E1036A
:1003A000D303C403B603A9039C038F03820376031C
:1003B0006A035F03540349033E0334032A03200303
:1003C00016030D030403FB02F202E902E102D90263
:1003D000D102C902C102BA02B202AB02A4029D025A
:1003E00096029002890283027D02770271026B02FB
:1003F00065025F025A0254024F024A0244023F025F
:100400003A02350231022C02270223021E021A028E
:10041000150211020D02090205020102FD01F90196
:10042000F501F101ED01EA01E601E201DF01DB0185
:10043000D801D501D101CE01CB01C801C401C10150
:10044000BE01BB01B801B501B301B001AD01AA0104
:10045000A701A501A2019F019D019A0198019501A3
:10046000930190018E018B01890187018401820132
:1004700080017E017B0179017701750173017101B2
:100480006F016D016B016901670165016301610124
:100490005F015D015B015901580156015401520190
:1004A00051014F014D014B014A01480147014501EE
:1004B0004301420140013F013D013C013A01390144
:1004C0003701360134013301310130012F012D0193
:1004D0002C012A01290128012601250124012201DC
:1004E000210120011F011D011C011B011A0119011D
:1004F00017011601150114011301120110010F015A
:100500000E010D010C010B010A010901080107018F
:10051000060105010401030102010101100E24601E
:1005200008D024B6100C24B4200C24B2400C24B003
:10053000800C24BC020C24BA040C24B8080C1EC085
:1005400022F01E6A1DC021F01D6A1CC020F01C6A2A
:100550001BC01FF01B6A000C1F6A000C010E2464F4
:10056000ACEF02F0D890F76A2434F7361B0FF66E22
:10057000030EF7220A001BC020F01CC01FF0F5502C
:100580002002F4CF1BF0F3CF1CF00900F5501F023E
:10059000F4CF1DF02002F3501D26F4501C22E86A0F
:1005A0001B220A00F5501F02F3501D26F4501C2296
:1005B000E86A1B2224501C02F3CF1EF0F4CF1DF07A
:1005C0001B02F3501D261E501F5E1D50205A20AEE8
:1005D000000C1C06E86A1B5A24501F26000C1BC086
:1005E00031F01CC032F01DC033F0AEEC02F01BC085
:1005F00031F01CC032F033C01CF01FC01BF0AEEC59
:1006000002F01CC01DF032C01CF031C01BF0000C09
:10061000246608D025C024F0AEEC02F01FC020F004
:100620001F6A000C24501B5CD8A0A5EF02F0D8A4D0
:1006300005D025501C5CD8A0A5EF02F01BC031F0FE
:100640001CC032F01CC02BF01BC01CF01B6A24C065
:1006500026F025C027F024BE1DD02450E8461D0FEB
:10066000F66E030EF76AF7220800F5502702F3CF63
:1006700025F0F4CF24F02602F3502426F550320260
:10068000F3CF2BF0F4CF1CF03102F3501C261B6A81
:10069000F4501B22B2EC02F01C502502F3502B5CEC
:1006A000F4501F58D8A01C061C502702F350325E8D
:1006B000F450315A1C502602F350315E31C01FF005
:1006C00032C020F0000C1F6A206AE86A246608D055
:1006D00025C024F0EFEC02F01FC020F01F6A000CD0
:1006E0001B620CD01CC01BF01DC01CF008EC03F0FA
:1006F0001CC01DF01BC01CF01B6A000C1DC01EF0AE
:100700001CC01DF01BC01CF01B6A1BC031F01CC0BC
:1007100032F01DC033F01EC034F0020E1A6E010E0E
:100720002D6E24BE1CD08EEC02F02D6E25022450BE
:10073000F3CF25F0F4CF24F02D02F35024262D50D2
:100740001E02F3CF34F0F4CF33F01C02F3CF32F0BB
:10075000F4CF31F01D02F3503326F4503226D890F6
:10076000F76A2434F7361B0FF66E030EF7220A00E1
:1007700031C01BF032C01CF0BBEC02F01BA008D053
:100780001C6832C01FF024501F26D8B0DDEF03F0E4
:100790001C502502F350335CF4501F58D8B00DD0D4
:1007A0001C0624501F26D8B008D01C502502F35038
:1007B000335CF4501F58D8A01C061CC02EF01C50EF
:1007C0002502F350335EF450325A1C502402F35089
:1007D000325EF450315A31AE05D02E062550332604
:1007E000245032221A4E09D02EC02FF032C031F0E0
:1007F00033C032F034C033F0BBD732C01FF033C047
:1008000020F0010E2D640CD02D40246E8EEC02F0F1
:100810003302F4CF20F03202F3502026F4CF1FF041
:100820001B6A2EC01DF02FC01CF0000C010E2464AA
:10083000ACEF02F01BC01FF024501B6002D01B6AFB
:10084000000CD890F76AE836F7361B0FF66E030EE9
:10085000F7220A00F5501F02F4CF1BF0F3CF1CF073
:100860000800F5501F02F4501C26E86A1B22245091
:100870001B02F3501F5E000C24501C02F4CF1CF02E
:10088000F3CF1DF01B02F4CF1BF0F3501C26E86AD7
:040890001B22000C1B
:020000040030CA
:08000000FFFAF6FEFFFFFBFF13
:00000001FF
